:020000040000FA
:040000004FEFBFF00F
:020008001100E5
:020018001100D5
:020000040001F9
:0A7E76009EAAFED79E9AAE5012009D
:107E8000AD6E9E989EA8FED71200A66E550EA76EE8
:107E9000AA0EA76EA68200000000A6941200F29E11
:107EA000FF0E926EEF0E936EFF0E946EFF0E956EA8
:107EB000400EAF6E240EAC6E900EAB6EB86AAE6A1A
:107EC000966ABA6A94908B908492800E196E800E96
:107ED000206E650E226E9EBA7DEFBFF0192E6BEFFD
:107EE000BFF0800E196E202E6BEFBFF0800E206E5B
:107EF000222E6BEFBFF0DCEFBFF09E9AAE50620A0D
:107F0000D8B485EFBFF06BEFBFF09EBA97EFBFF02C
:107F1000192E85EFBFF0800E196E202E85EFBFF071
:107F2000800E206E222E85EFBFF0DCEFBFF09E9A10
:107F3000AE506C0AD8B49FEFBFF085EFBFF0110EC2
:107F40009FDF99DF3A0AD8A436D095DF006E016E24
:107F5000026E91DF0226F86E8EDF0226F76E8BDF4F
:107F60000226F66E01EE00F086DF0226EE6E002E8F
:107F7000FBD781DF026C026201D003D0FF0E80DFED
:107F8000E0D701EE00F0F8BA0BD0940E7EDF0A00C5
:107F9000EE50F56E0F00012EFBD7840E76DF08D071
:107FA000EE50F56E0C00C40E70DF012EF9D7A69CC2
:107FB000060E66DFC6D7FF000000000000000000CC
:047FC0004FEFBFF0D0
:020000040030CA
:0E000000FF32F1EEFFFD8BFFFFFFFFFFFF4021
:00000001FF
